:1000000016C030C02FC02EC02DC02CC02BC02AC09F
:1000100029C006C227C026C025C024C023C022C0D4
:1000200021C020C01FC01F10101F11111E0011245D
:100030001FBECFE5D4E0DEBFCDBF11E0A0E6B0E04B
:10004000ECEFF8E002C005900D92A03AB107D9F7A5
:1000500021E0A0EAB1E001C01D92A73CB207E1F7A0
:100060006BD34AC4CDCF2091A001283070F4909179
:10007000A201E92FF0E0ED55FE4F80832F5F209322
:10008000A0019F5F97709093A2010895EF92FF9255
:100090000F931F93CF932FEF260F30E08901055563
:1000A0001E4FF801C081F901E055FE4F90819093F9
:1000B000AF017901EE0CFF1CD701AA54BE4F2D9160
:1000C0003C913093B5012093B4018823D9F0253FAA
:1000D00081E0380780F52F5F3F4F3093B5012093C3
:1000E000B4012B30310538F1C0FD03C0C16091E08F
:1000F00001C090E0253F3140F9F4C1FD1DC0CB7F28
:10010000C2601AC0C0FF09C0C1FD07C0C2FF02C063
:10011000CB7F03C01092AF01C460C2FF07C08091C3
:10012000AF01853618F01092AF01CB7F1092B50168
:100130001092B401CC7F90E0C2FF07C08091AF0164
:10014000853618F48F5F8093AF018091AF01808373
:10015000992321F0862F87DF81E085DFF701EA54BC
:10016000FE4F8091B4019091B50191838083F80195
:10017000C083CF911F910F91FF90EF900895209130
:10018000A001222379F09091A101E92FF0E0ED5533
:10019000FE4F808121502093A0019F5F9770909324
:1001A000A101089580E00895CF93DF93E6EBF1E09D
:1001B000CBEAD1E0A0EBB1E01192119219921D921D
:1001C00081E0EE3BF807C1F7E3EAF1E08BEA91E06A
:1001D00011928E179F07E1F71092A2011092A101D0
:1001E0001092A001A098A89AA198A99AA298AA9A58
:1001F000A398AB9ADF91CF910895CF9383B3817089
:10020000C1E061E08C2742DF83B38695817062E0B4
:100210008C273CDF83B382FB882780F963E08C273F
:1002200035DF83B383FB882780F964E08C27CF9187
:100230002DCF982F907F84FF02C0C49A01C0C4982C
:1002400085FF02C0C59A01C0C59886FF02C0C09A4A
:1002500001C0C09897FF02C0AD9A01C0AD98C39A83
:100260009AE29A95F1F700C0C3988295982F907FF3
:1002700084FF02C0C49A01C0C49885FF02C0C59A19
:1002800001C0C59886FF02C0C09A01C0C09897FF00
:1002900002C0AD9A01C0AD98C39A8AE28A95F1F77F
:1002A00000C0C3980895BC98BD98B898A598C49A02
:1002B000C59AC09AAD9AC19AC298C39A9AE29A9581
:1002C000F1F700C0B49B02C0806101C08F7EB59B76
:1002D00002C0806201C08F7DB09B02C0806401C0FB
:1002E0008F7B9D9B8F77C398C39A9AE29A95F1F77B
:1002F00000C096B396B396B393B3C39887FDDDCF92
:10030000C198BC9ABD9AB89AA59A0895E7E6F1E01B
:100310003197F1F700C00000C298982F907F84FFBA
:1003200002C0C49A01C0C49885FF02C0C59A01C02A
:10033000C59886FF02C0C09A01C0C09897FF02C04E
:10034000AD9A01C0AD98C39AFAE2FA95F1F700C0F0
:10035000C3980895CF93C82FA6DFC2988C2FCF9152
:1003600068CFCF93C82F9FDFC29A8C2FCF9161CFD8
:10037000BC9ABD9AB89AA59ABA9AB99ABB9A2FEF25
:1003800083EF91E0215080409040E1F700C00000F1
:1003900080E3BCDF8FE39CE90197F1F700C0000028
:1003A00080E3B4DF8FE39FE10197F1F700C0000025
:1003B00080E3ACDF88E2AADF88E2CCDF8CE0CADF32
:1003C00081E0C8DF8FE39FE10197F1F700C00000F3
:1003D00086E0C0CFCF93DF93EC018991882311F0A1
:1003E000C0DFFBCFDF91CF9108950F931F93CF9381
:1003F000DF93EC01677028E0629FC00111248064E4
:10040000A9DF8E01085F1F4FFE0184912196A9DFAD
:10041000C017D107C9F7DF91CF911F910F910895B0
:100420001F920F920FB60F9211244F935F936F9309
:100430007F938F939F93AF93BF93EF93FF934091DD
:10044000BF015091C0016091C1017091C2018091C2
:10045000C3019091C401A091C501B091C601840F60
:10046000951FA61FB71F8093C3019093C401A0934B
:10047000C501B093C6018091C3019091C401A091C0
:10048000C501B091C6018B2F9927AA27BB27FC0174
:10049000EE57FF4F808182BBFF91EF91BF91AF91EB
:1004A0009F918F917F916F915F914F910F900FBEB0
:1004B0000F901F90189581E083BF89BF0895CF9258
:1004C000DF92EF92FF9280E845DF60917C007091AF
:1004D0007D0080917E0090917F0020EAC22E26E868
:1004E000D22EEE24E394F12CA7019601CDD180E326
:1004F000820F37DF81E82EDF60917C0070917D00F4
:1005000080917E0090917F00A7019601BDD130E1DE
:10051000C32E37E2D32EE12CF12CA7019601B4D1E2
:1005200080E3820F1EDF82E815DF60917C0070910E
:100530007D0080917E0090917F00A7019601A4D15B
:1005400048EEC42E43E0D42EE12CF12CA7019601F5
:100550009BD180E3820F05DF83E8FCDE60917C00A5
:1005600070917D0080917E0090917F00A70196019F
:100570008BD154E6C52ED12CE12CF12CA70196018C
:1005800083D180E3820FEDDE84E8E4DE8EE2E9DEF3
:1005900085E8E0DE60917C0070917D0080917E00B6
:1005A00090917F00A70196016FD1EAE0CE2ED12C69
:1005B000E12CF12CA701960167D180E3820FD1DEF7
:1005C00086E8C8DE60917C0070917D0080917E009D
:1005D00090917F00A701960157D180E3860FC1DE7D
:1005E00082E891E0F7DE8DECB5DE86E891E0F2DEA0
:1005F00080E0FF90EF90DF90CF90B3CE0F931F93EA
:10060000662359F140917C0050917D0060917E00FD
:1006100070917F004032514A6740710508F052C026
:1006200094E0899FF0011124E05AFF4F008111816D
:100630002281338140917C0050917D0060917E0049
:1006400070917F00400F511F621F731F4132514A4A
:100650006740710508F44EC035C040917C00509150
:100660007D0060917E0070917F00453651056105E7
:10067000710540F194E0899FF0011124E05AFF4F89
:10068000408151816281738180917C0090917D00D5
:10069000A0917E00B0917F0084179507A607B70749
:1006A00088F080917C0090917D00A0917E00B091B7
:1006B0007F00841B950BA60BB70B84369105A10513
:1006C000B10528F5A0918000B091810020917C00B7
:1006D00030917D0040917E0050917F00F7D0609373
:1006E000BF017093C0018093C1019093C2011F911B
:1006F0000F91089580917C0090917D00A0917E00E3
:10070000B0917F00800F911FA21FB31F0CC080917A
:100710007C0090917D00A0917E00B0917F00841BB1
:10072000950BA60BB70B80937C0090937D00A09354
:100730007E00B0937F00C6CFA0918000B091810071
:1007400020917C0030917D0040917E0050917F008F
:10075000BDD06093BF017093C0018093C10190939D
:10076000C2018FEF81BB12BA1FDDA5DE01DE60E0A2
:1007700086E290E03ADE80E8EDDD89E891E02ADE6D
:1007800082ECE8DD82E2EDDD86E891E023DE80E0C8
:10079000E8DD82E2E6DD89E991E01CDE2FEF83ED02
:1007A00090E3215080409040E1F700C0000081E0DC
:1007B000D1DD8FE39FE10197F1F700C0000080ECED
:1007C000C9DD8EE5CEDD789418DDD9DCC82F88230D
:1007D00009F458C0D4DCC13041F4813009F052C072
:1007E000F8948091BE0161E009C0C23051F48130BB
:1007F00009F048C0F8948091BE0160E0FFDE789473
:1008000041C0C330D1F48130E9F58091BE01882325
:10081000C9F18091BE018F70805C80689BDD80E2B1
:10082000A0DD8091BE01853021F48091BE0182500F
:100830001FC08091BE0181501BC0C43019F58130AA
:1008400009F58091BE018630E8F48091BE018F7079
:10085000805C80687FDD80E284DD8091BE01833032
:1008600021F48091BE018E5F03C08091BE018F5F35
:100870008093BE018091BE018F70805C80686ADDCC
:100880008EE56FDD1CDEA0CFA1E21A2EAA1BBB1BDA
:10089000FD010DC0AA1FBB1FEE1FFF1FA217B3074C
:1008A000E407F50720F0A21BB30BE40BF50B661F62
:1008B000771F881F991F1A9469F760957095809526
:1008C00090959B01AC01BD01CF01089509D0A59F72
:1008D000900DB49F900DA49F800D911D112408953B
:1008E000A29FB001B39FC001A39F01D0B29F700D22
:0C08F000811D1124911D0895F894FFCF84
:1008FC00A086010010270000E8030000640000003F
:10090C00000000000A00000001000000640000006C
:10091C00B002808386898C8F9295989B9EA2A5A706
:10092C00AAADB0B3B6B9BCBEC1C4C6C9CBCED0D3C8
:10093C00D5D7DADCDEE0E2E4E6E8EAEBEDEEF0F166
:10094C00F3F4F5F6F8F9FAFAFBFCFDFDFEFEFEFFFA
:10095C00FFFFFFFFFFFFFEFEFEFDFDFCFBFAFAF9B9
:10096C00F8F6F5F4F3F1F0EEEDEBEAE8E6E4E2E0AC
:10097C00DEDCDAD7D5D3D0CECBC9C6C4C1BEBCB9A8
:10098C00B6B3B0ADAAA7A5A29E9B9895928F8C8961
:10099C008683807C797673706D6A6764615D5A5862
:1009AC0055524F4C494643413E3B393634312F2C3E
:1009BC002A282523211F1D1B1917151412110F0E80
:1009CC000C0B0A09070605050403020201010100CC
:1009DC0000000000000001010102020304050506ED
:1009EC0007090A0B0C0E0F1112141517191B1D1FDA
:1009FC00212325282A2C2F313436393B3E414346BE
:100A0C00494C4F5255585A5D6164676A6D707376E4
:100A1C00797C20487A00434B0020204445534947B9
:100A2C004E454420425920200076312E302E300085
:00000001FF
